:100000000C9434000C9449000C9449000C94490061
:100010000C9449000C9449000C9449000C9449003C
:100020000C9449000C9449000C9449000C9449002C
:100030000C9449000C9449000C9449000C9449001C
:100040000C9449000C9449000C9449000C9449000C
:100050000C9449000C9449000C9449000C944900FC
:100060000C9449000C94490011241FBECFEFD8E036
:10007000DEBFCDBF11E0A0E0B1E0E6E2F1E002C0FA
:1000800005900D92A030B107D9F70E948A000C9418
:1000900091000C9400008CE384B984B1846084B92D
:1000A00084B1886084B984B1806184B984B180628C
:1000B00084B9089582E013C021E030E0082E02C028
:1000C000220F331F0A94E2F725B92FEF31EE94E0A7
:1000D000215030409040E1F700C000008F5F863033
:1000E00058F3089585E013C021E030E0082E02C0E7
:1000F000220F331F0A94E2F725B92FEF31EE94E077
:10010000215030409040E1F700C000008150823023
:1001100058F708950E944B000E945A000E947200F6
:06012000FBCFF894FFCFB5
:00000001FF
