S00F0000436C61736520332E73726563DA
S11300000C9434000C943E000C943E000C943E007E
S11300100C943E000C943E000C943E000C943E0064
S11300200C943E000C943E000C943E000C943E0054
S11300300C943E000C943E000C943E000C943E0044
S11300400C943E000C943E000C943E000C943E0034
S11300500C943E000C943E000C943E000C943E0024
S11300600C943E000C943E0011241FBECFEFD8E048
S1130070DEBFCDBF0E9443000C9486000C940000A8
S11300808CE384B908950E94400084E085B92FEF81
S113009039E648E1215030404040E1F700C000001B
S11300A088E085B99FEF29E638E19150204030403F
S11300B0E1F700C0000090E195B94FEF29E638E17F
S11300C0415020403040E1F700C0000020E225B953
S11300D04FEF29E638E1415020403040E1F700C0BD
S11300E0000095B94FEF99E628E141509040204037
S11300F0E1F700C0000085B93FEF49E688E13150DF
S113010040408040E1F700C00000BFCFF894FFCF2B
S9030000FC
