S00B00004146322E7372656360
S11300000C9434000C943E000C943E000C943E007E
S11300100C943E000C943E000C943E000C943E0064
S11300200C943E000C943E000C943E000C943E0054
S11300300C943E000C943E000C943E000C943E0044
S11300400C943E000C943E000C943E000C943E0034
S11300500C943E000C943E000C943E000C943E0024
S11300600C943E000C943E0011241FBECFEFD8E048
S1130070DEBFCDBF0E9459000C9407010C94000010
S11300808AB18F7E8AB98AB1877F8AB984B1846044
S113009084B984B1886084B98BB18F7E8BB98BB1FC
S11300A0877F8BB985B18B7F85B985B1877F85B90A
S11300B008950E9440004B995DC04C995BC085B186
S11300C0846085B92FEF89E698E121508040904003
S11300D0E1F700C0000085B18B7F85B985B18860E8
S11300E085B92FEF89E698E1215080409040E1F7EF
S11300F000C0000085B1877F85B985B1806185B96D
S11301002FEF89E698E1215080409040E1F700C04C
S1130110000085B18F7E85B985B1806285B92FEFE6
S113012089E698E1215080409040E1F700C000004A
S113013085B18F7D85B985B1806185B92FEF89E659
S113014098E1215080409040E1F700C0000085B163
S11301508F7E85B985B1886085B92FEF89E698E1EE
S1130160215080409040E1F700C0000085B1877FB6
S113017085B9A1CF4B990FC04C9B0DC085B1877F2A
S113018085B985B18B7F85B985B18F7E85B985B1F8
S11301908F7D85B990CF4B9B2DC04C992BC085B1D9
S11301A0846085B985B1806285B985B1877F85B959
S11301B085B18F7E85B92FEF89E698E12150804083
S11301C09040E1F700C0000085B18B7F85B985B10F
S11301D08F7D85B985B1886085B985B1806185B920
S11301E02FEF89E698E1215080409040E1F700C06C
S11301F0000061CF85B1886085B985B1846085B917
S113020085B1806185B985B1806285B954CFF89490
S1050210FFCF1A
S9030000FC
