:100000000C9434000C943E000C943E000C943E0082
:100010000C943E000C943E000C943E000C943E0068
:100020000C943E000C943E000C943E000C943E0058
:100030000C943E000C943E000C943E000C943E0048
:100040000C943E000C943E000C943E000C943E0038
:100050000C943E000C943E000C943E000C943E0028
:100060000C943E000C943E0011241FBECFEFD8E04C
:10007000DEBFCDBF0E9445000C94A5000C9400008B
:100080008CE38AB981E084B908950E94400084E03D
:100090008BB915B82FE33DE043E02150304040409C
:1000A000E1F700C0000088E08BB915B85FE39DE080
:1000B00023E0515090402040E1F700C0000090E163
:1000C0009BB915B83FE34DE053E0315040405040FC
:1000D000E1F700C0000020E22BB915B83FE34DE086
:1000E00053E0315040405040E1F700C000001BB8E1
:1000F00031E035B93FE34DE053E0315040405040EE
:10010000E1F700C000002BB915B82FE33DE043E054
:10011000215030404040E1F700C000009BB915B8C5
:100120005FE39DE023E0515090402040E1F700C0A4
:1001300000008BB915B83FE34DE053E0315040402B
:0E0140005040E1F700C00000A2CFF894FFCFBE
:00000001FF
