:100000000C9434000C943E000C943E000C943E0082
:100010000C943E000C943E000C943E000C943E0068
:100020000C943E000C943E000C943E000C943E0058
:100030000C943E000C943E000C943E000C943E0048
:100040000C943E000C943E000C943E000C943E0038
:100050000C943E000C943E000C943E000C943E0028
:100060000C943E000C943E0011241FBECFEFD8E04C
:10007000DEBFCDBF0E944F000C9484000C940000A2
:100080008CE384B984B1846084B984B1886084B914
:1000900084B1806184B984B1806284B908950E947A
:1000A000400022E015C035B181E090E0022E02C090
:1000B000880F991F0A94E2F7832B85B93FEF81EEF1
:1000C00094E0315080409040E1F700C000002F5F85
:1000D000263048F316C035B181E090E0022E02C010
:1000E000880F991F0A94E2F78095832385B93FEF23
:1000F00081EE94E0315080409040E1F700C0000074
:0C0100002150223040F7CDCFF894FFCF03
:00000001FF
