:100000000C9434000C943E000C943E000C943E0082
:100010000C943E000C943E000C943E000C943E0068
:100020000C943E000C943E000C943E000C943E0058
:100030000C943E000C943E000C943E000C943E0048
:100040000C943E000C943E000C943E000C943E0038
:100050000C943E000C943E000C943E000C943E0028
:100060000C943E000C943E0011241FBECFEFD8E04C
:10007000DEBFCDBF0E9459000C946E000C940000AE
:100080008AB18F7E8AB98AB1877F8AB984B180614B
:1000900084B984B1886084B98BB18F7E8BB98BB100
:1000A000877F8BB985B18F7E85B985B1877F85B90B
:1000B00008950E9440004C9B04C085B1806185B9C1
:1000C00003C085B18F7E85B94B9B04C085B1886024
:1000D00085B9F1CF85B1877F85B9EDCFF894FFCF92
:00000001FF
