:100000000C943B000C9445000C9445000C94450066
:100010000C9445000C9445000C9445000C9445004C
:100020000C9445000C9445000C9445000C9445003C
:100030000C9445000C9445000C9445000C9445002C
:100040000C9445000C9445000C9445000C9445001C
:100050000C9445000C9445000C9445000C9445000C
:100060000C9445000C944500420158016E01840136
:100070009A01AF01C50111241FBECFEFD8E0DEBF4A
:10008000CDBF0E940C020C9446020C94000087B174
:100090008E7F87B987B18D7F87B987B18B7F87B90D
:1000A00088B1816088B988B1826088B988B184607C
:1000B00088B98AB18C608AB98AB180638AB98AB1F9
:1000C000806C8AB984B1816084B98BB1837C8BB92F
:1000D0008BB18F738BB985B18E7F85B9089588B147
:1000E000886088B988B1806188B988B1806288B930
:1000F00085B1826085B9089588B1886088B92FEF8D
:1001000087E893E1215080409040E1F700C0000073
:1001100088B1806188B92FEF87E893E12150804052
:100120009040E1F700C0000088B1806288B92FEFED
:1001300087E893E1215080409040E1F700C0000043
:1001400085B1826085B92FEF87E893E12150804027
:100150009040E1F700C0000088B1877F88B988B17E
:100160008F7E88B988B18F7D88B985B18D7F85B93B
:100170002FEF87E893E1215080409040E1F700C0E5
:100180000000089585B1826085B92FEF87E893E17B
:10019000215080409040E1F700C0000088B18062AB
:1001A00088B92FEF87E893E1215080409040E1F734
:1001B00000C0000088B1806188B92FEF87E893E123
:1001C000215080409040E1F700C0000088B1886075
:1001D00088B92FEF87E893E1215080409040E1F704
:1001E00000C0000085B18D7F85B988B18F7D88B949
:1001F00088B18F7E88B988B1877F88B92FEF87E86B
:1002000093E1215080409040E1F700C00000089544
:1002100088B1877F88B988B1806188B988B18062E8
:1002200088B985B18D7F85B9089588B1877F88B9F0
:1002300088B18F7E88B988B18F7D88B985B18D7F6F
:1002400085B98BB18B7F8BB98BB1877F8BB98BB124
:100250008F7E8BB98BB18F7D8BB98BB18F7B8BB937
:100260008BB18F778BB985B18E7F85B9089590E07A
:10027000FC013197E730F10508F09CC0EC5CFF4FC2
:100280000C9440028BB184608BB98BB188608BB9C0
:100290008BB18F7E8BB98BB18F7D8BB98BB1806425
:1002A0008BB98BB180688BB985B1816085B90895B0
:1002B0008BB18B7F8BB98BB188608BB98BB180612F
:1002C0008BB98BB180628BB98BB180648BB98BB1E8
:1002D0008F778BB985B1816085B908958BB18460C2
:1002E0008BB98BB188608BB98BB180618BB98BB1C5
:1002F0008F7D8BB98BB180648BB98BB180688BB9E2
:1003000085B1816085B908958BB184608BB98BB15B
:1003100088608BB98BB180618BB98BB180628BB9EE
:100320008BB180648BB98BB180688BB985B18E7FBE
:1003300085B908958BB18B7F8BB98BB188608BB9F0
:100340008BB180618BB98BB18F7D8BB98BB18F7B7A
:100350008BB98BB18F778BB985B18E7F85B98BB116
:1003600084608BB98BB188608BB98BB18F7E8BB970
:100370008BB180628BB98BB180648BB98BB18F7775
:100380008BB985B1816085B908958BB184608BB9D3
:100390008BB188608BB98BB180618BB98BB1806276
:1003A0008BB98BB18F7B8BB98BB18F778BB985B1C3
:1003B000816085B9089584E00E9437012FEF87E8B6
:1003C00093E1215080409040E1F700C0000085E0BB
:1003D0000E9437012FEF87E893E121508040904041
:1003E000E1F700C0000086E00E9437012FEF87E8A8
:1003F00093E1215080409040E1F700C0000087E089
:100400000E9437012FEF87E893E121508040904010
:10041000E1F700C0000008950E94470030990AC02B
:10042000319908C0329906C00E946F0081E00E9495
:100430003701F4CF30990AC0319908C0329B06C009
:100440000E947C0082E00E943701E8CF30990AC008
:10045000319B08C0329906C00E94C20083E00E940E
:100460003701DCCF309909C0319B07C0329B05C0F2
:100470000E9408010E94DB01D1CF0E941501CECF5E
:10048000EE0FFF1F0590F491E02D0994F894FFCF33
:00000001FF
