:100000000C9434000C9449000C9449000C94490061
:100010000C9449000C9449000C9449000C9449003C
:100020000C9449000C9449000C9449000C9449002C
:100030000C9449000C9449000C9449000C9449001C
:100040000C9449000C9449000C9449000C9449000C
:100050000C9449000C9449000C9449000C944900FC
:100060000C9449000C94490011241FBECFEFD8E036
:10007000DEBFCDBF11E0A0E0B1E0E6E4F1E002C0F8
:1000800005900D92A230B107D9F70E949A000C9406
:10009000A1000C9400008CE384B984B1846084B91D
:1000A00084B1886084B984B1806184B984B180628C
:1000B00084B9089582E08093000118C035B181E0D1
:1000C00090E002C0880F991F2A95E2F7832B85B92B
:1000D0002FEF81EE94E0215080409040E1F700C086
:1000E0000000809100018F5F80930001209100014A
:1000F000263020F3089519C025B181E090E002C0B8
:10010000880F991F3A95E2F78095822385B92FEFE2
:1001100081EE94E0215080409040E1F700C0000063
:1001200080910001815080930001309100013230B4
:1001300018F708950E944B000E945A000E947B000D
:06014000FBCFF894FFCF95
:020146000200B5
:00000001FF
